{
  "abi": [
    {
      "inputs": [
        {
          "internalType": "address",
          "name": "_link",
          "type": "address"
        }
      ],
      "stateMutability": "nonpayable",
      "type": "constructor"
    },
    {
      "anonymous": false,
      "inputs": [
        {
          "indexed": true,
          "internalType": "bytes32",
          "name": "requestId",
          "type": "bytes32"
        }
      ],
      "name": "CancelOracleRequest",
      "type": "event"
    },
    {
      "anonymous": false,
      "inputs": [
        {
          "indexed": true,
          "internalType": "bytes32",
          "name": "specId",
          "type": "bytes32"
        },
        {
          "indexed": false,
          "internalType": "address",
          "name": "requester",
          "type": "address"
        },
        {
          "indexed": false,
          "internalType": "bytes32",
          "name": "requestId",
          "type": "bytes32"
        },
        {
          "indexed": false,
          "internalType": "uint256",
          "name": "payment",
          "type": "uint256"
        },
        {
          "indexed": false,
          "internalType": "address",
          "name": "callbackAddr",
          "type": "address"
        },
        {
          "indexed": false,
          "internalType": "bytes4",
          "name": "callbackFunctionId",
          "type": "bytes4"
        },
        {
          "indexed": false,
          "internalType": "uint256",
          "name": "cancelExpiration",
          "type": "uint256"
        },
        {
          "indexed": false,
          "internalType": "uint256",
          "name": "dataVersion",
          "type": "uint256"
        },
        {
          "indexed": false,
          "internalType": "bytes",
          "name": "data",
          "type": "bytes"
        }
      ],
      "name": "OracleRequest",
      "type": "event"
    },
    {
      "inputs": [],
      "name": "EXPIRY_TIME",
      "outputs": [
        {
          "internalType": "uint256",
          "name": "",
          "type": "uint256"
        }
      ],
      "stateMutability": "view",
      "type": "function"
    },
    {
      "inputs": [
        {
          "internalType": "bytes32",
          "name": "_requestId",
          "type": "bytes32"
        },
        {
          "internalType": "uint256",
          "name": "_payment",
          "type": "uint256"
        },
        {
          "internalType": "bytes4",
          "name": "",
          "type": "bytes4"
        },
        {
          "internalType": "uint256",
          "name": "_expiration",
          "type": "uint256"
        }
      ],
      "name": "cancelOracleRequest",
      "outputs": [],
      "stateMutability": "nonpayable",
      "type": "function"
    },
    {
      "inputs": [
        {
          "internalType": "bytes32",
          "name": "_requestId",
          "type": "bytes32"
        },
        {
          "internalType": "bytes32",
          "name": "_data",
          "type": "bytes32"
        }
      ],
      "name": "fulfillOracleRequest",
      "outputs": [
        {
          "internalType": "bool",
          "name": "",
          "type": "bool"
        }
      ],
      "stateMutability": "nonpayable",
      "type": "function"
    },
    {
      "inputs": [],
      "name": "getChainlinkToken",
      "outputs": [
        {
          "internalType": "address",
          "name": "",
          "type": "address"
        }
      ],
      "stateMutability": "view",
      "type": "function"
    },
    {
      "inputs": [
        {
          "internalType": "address",
          "name": "_sender",
          "type": "address"
        },
        {
          "internalType": "uint256",
          "name": "_amount",
          "type": "uint256"
        },
        {
          "internalType": "bytes",
          "name": "_data",
          "type": "bytes"
        }
      ],
      "name": "onTokenTransfer",
      "outputs": [],
      "stateMutability": "nonpayable",
      "type": "function"
    },
    {
      "inputs": [
        {
          "internalType": "address",
          "name": "_sender",
          "type": "address"
        },
        {
          "internalType": "uint256",
          "name": "_payment",
          "type": "uint256"
        },
        {
          "internalType": "bytes32",
          "name": "_specId",
          "type": "bytes32"
        },
        {
          "internalType": "address",
          "name": "_callbackAddress",
          "type": "address"
        },
        {
          "internalType": "bytes4",
          "name": "_callbackFunctionId",
          "type": "bytes4"
        },
        {
          "internalType": "uint256",
          "name": "_nonce",
          "type": "uint256"
        },
        {
          "internalType": "uint256",
          "name": "_dataVersion",
          "type": "uint256"
        },
        {
          "internalType": "bytes",
          "name": "_data",
          "type": "bytes"
        }
      ],
      "name": "oracleRequest",
      "outputs": [],
      "stateMutability": "nonpayable",
      "type": "function"
    }
  ],
  "bytecode": {
    "object": "0x608060405234801561001057600080fd5b506040516110d43803806110d483398101604081905261002f91610054565b600080546001600160a01b0319166001600160a01b0392909216919091179055610084565b60006020828403121561006657600080fd5b81516001600160a01b038116811461007d57600080fd5b9392505050565b611041806100936000396000f3fe608060405234801561001057600080fd5b50600436106100725760003560e01c80634b602282116100505780634b602282146100dc5780636ee4d553146100f3578063a4c0ed361461010657600080fd5b8063165d35e1146100775780631f8f238c146100a457806340429946146100c7575b600080fd5b60005460405173ffffffffffffffffffffffffffffffffffffffff90911681526020015b60405180910390f35b6100b76100b2366004610b9a565b610119565b604051901515815260200161009b565b6100da6100d5366004610c15565b6103c9565b005b6100e561012c81565b60405190815260200161009b565b6100da610101366004610ce0565b610701565b6100da610114366004610d4c565b6108fe565b600082815260016020526040812054839073ffffffffffffffffffffffffffffffffffffffff166101ab576040517f08c379a000000000000000000000000000000000000000000000000000000000815260206004820152601b60248201527f4d757374206861766520612076616c696420726571756573744964000000000060448201526064015b60405180910390fd5b60008481526001602081815260408084208151808301909252805473ffffffffffffffffffffffffffffffffffffffff811683527fffffffff0000000000000000000000000000000000000000000000000000000074010000000000000000000000000000000000000000820460e01b168385015294899052929091527fffffffffffffffff000000000000000000000000000000000000000000000000909216905562061a805a10156102bb576040517f08c379a000000000000000000000000000000000000000000000000000000000815260206004820181905260248201527f4d7573742070726f7669646520636f6e73756d657220656e6f7567682067617360448201526064016101a2565b80516020820151604051602481018890526044810187905260009273ffffffffffffffffffffffffffffffffffffffff169190606401604080517fffffffffffffffffffffffffffffffffffffffffffffffffffffffffffffffe08184030181529181526020820180517bffffffffffffffffffffffffffffffffffffffffffffffffffffffff167fffffffff0000000000000000000000000000000000000000000000000000000090941693909317909252905161037a9190610e35565b6000604051808303816000865af19150503d80600081146103b7576040519150601f19603f3d011682016040523d82523d6000602084013e6103bc565b606091505b5090979650505050505050565b60005473ffffffffffffffffffffffffffffffffffffffff16331461044a576040517f08c379a000000000000000000000000000000000000000000000000000000000815260206004820152601360248201527f4d75737420757365204c494e4b20746f6b656e0000000000000000000000000060448201526064016101a2565b600054869073ffffffffffffffffffffffffffffffffffffffff808316911614156104d1576040517f08c379a000000000000000000000000000000000000000000000000000000000815260206004820152601760248201527f43616e6e6f742063616c6c6261636b20746f204c494e4b00000000000000000060448201526064016101a2565b6040517fffffffffffffffffffffffffffffffffffffffff00000000000000000000000060608c901b16602082015260348101869052600090605401604080517fffffffffffffffffffffffffffffffffffffffffffffffffffffffffffffffe081840301815291815281516020928301206000818152600190935291205490915073ffffffffffffffffffffffffffffffffffffffff16156105d0576040517f08c379a000000000000000000000000000000000000000000000000000000000815260206004820152601460248201527f4d75737420757365206120756e6971756520494400000000000000000000000060448201526064016101a2565b60006105de61012c42610e9f565b905060405180604001604052808a73ffffffffffffffffffffffffffffffffffffffff168152602001897bffffffffffffffffffffffffffffffffffffffffffffffffffffffff19168152506001600084815260200190815260200160002060008201518160000160006101000a81548173ffffffffffffffffffffffffffffffffffffffff021916908373ffffffffffffffffffffffffffffffffffffffff16021790555060208201518160000160146101000a81548163ffffffff021916908360e01c0217905550905050897fd8d7ecc4800d25fa53ce0372f13a416d98907a7ef3d8d3bdd79cf4fe75529c658d848e8d8d878d8d8d6040516106eb99989796959493929190610eb7565b60405180910390a2505050505050505050505050565b60008481526001602052604090205473ffffffffffffffffffffffffffffffffffffffff1661078c576040517f08c379a000000000000000000000000000000000000000000000000000000000815260206004820152601460248201527f4d75737420757365206120756e6971756520494400000000000000000000000060448201526064016101a2565b428111156107f6576040517f08c379a000000000000000000000000000000000000000000000000000000000815260206004820152601660248201527f52657175657374206973206e6f7420657870697265640000000000000000000060448201526064016101a2565b60008481526001602052604080822080547fffffffffffffffff0000000000000000000000000000000000000000000000001690555185917fa7842b9ec549398102c0d91b1b9919b2f20558aefdadf57528a95c6cd3292e9391a26000546040517fa9059cbb0000000000000000000000000000000000000000000000000000000081523360048201526024810185905273ffffffffffffffffffffffffffffffffffffffff9091169063a9059cbb906044016020604051808303816000875af11580156108c8573d6000803e3d6000fd5b505050506040513d601f19601f820116820180604052508101906108ec9190610f76565b6108f8576108f8610f9f565b50505050565b60005473ffffffffffffffffffffffffffffffffffffffff16331461097f576040517f08c379a000000000000000000000000000000000000000000000000000000000815260206004820152601360248201527f4d75737420757365204c494e4b20746f6b656e0000000000000000000000000060448201526064016101a2565b8061098c60026020610fce565b610997906004610e9f565b81511015610a01576040517f08c379a000000000000000000000000000000000000000000000000000000000815260206004820152601660248201527f496e76616c69642072657175657374206c656e6774680000000000000000000060448201526064016101a2565b602082015182907fffffffff0000000000000000000000000000000000000000000000000000000081167f404299460000000000000000000000000000000000000000000000000000000014610ab3576040517f08c379a000000000000000000000000000000000000000000000000000000000815260206004820152601e60248201527f4d757374207573652077686974656c69737465642066756e6374696f6e73000060448201526064016101a2565b85602485015284604485015260003073ffffffffffffffffffffffffffffffffffffffff1685604051610ae69190610e35565b600060405180830381855af49150503d8060008114610b21576040519150601f19603f3d011682016040523d82523d6000602084013e610b26565b606091505b5050905080610b91576040517f08c379a000000000000000000000000000000000000000000000000000000000815260206004820152601860248201527f556e61626c6520746f206372656174652072657175657374000000000000000060448201526064016101a2565b50505050505050565b60008060408385031215610bad57600080fd5b50508035926020909101359150565b803573ffffffffffffffffffffffffffffffffffffffff81168114610be057600080fd5b919050565b80357fffffffff0000000000000000000000000000000000000000000000000000000081168114610be057600080fd5b60008060008060008060008060006101008a8c031215610c3457600080fd5b610c3d8a610bbc565b985060208a0135975060408a01359650610c5960608b01610bbc565b9550610c6760808b01610be5565b945060a08a0135935060c08a0135925060e08a013567ffffffffffffffff80821115610c9257600080fd5b818c0191508c601f830112610ca657600080fd5b813581811115610cb557600080fd5b8d6020828501011115610cc757600080fd5b6020830194508093505050509295985092959850929598565b60008060008060808587031215610cf657600080fd5b8435935060208501359250610d0d60408601610be5565b9396929550929360600135925050565b7f4e487b7100000000000000000000000000000000000000000000000000000000600052604160045260246000fd5b600080600060608486031215610d6157600080fd5b610d6a84610bbc565b925060208401359150604084013567ffffffffffffffff80821115610d8e57600080fd5b818601915086601f830112610da257600080fd5b813581811115610db457610db4610d1d565b604051601f82017fffffffffffffffffffffffffffffffffffffffffffffffffffffffffffffffe0908116603f01168101908382118183101715610dfa57610dfa610d1d565b81604052828152896020848701011115610e1357600080fd5b8260208601602083013760006020848301015280955050505050509250925092565b6000825160005b81811015610e565760208186018101518583015201610e3c565b81811115610e65576000828501525b509190910192915050565b7f4e487b7100000000000000000000000000000000000000000000000000000000600052601160045260246000fd5b60008219821115610eb257610eb2610e70565b500190565b600061010073ffffffffffffffffffffffffffffffffffffffff808d1684528b60208501528a6040850152808a166060850152507fffffffff00000000000000000000000000000000000000000000000000000000881660808401528660a08401528560c08401528060e08401528381840152506101208385828501376000838501820152601f9093017fffffffffffffffffffffffffffffffffffffffffffffffffffffffffffffffe0169091019091019998505050505050505050565b600060208284031215610f8857600080fd5b81518015158114610f9857600080fd5b9392505050565b7f4e487b7100000000000000000000000000000000000000000000000000000000600052600160045260246000fd5b6000817fffffffffffffffffffffffffffffffffffffffffffffffffffffffffffffffff048311821515161561100657611006610e70565b50029056fea264697066735822122005b72c730cfd8b242a3f03d7de6d10805ff19756c1023920b7907bd1fd498f6e64736f6c634300080b0033",
    "linkReferences": {}
  }
}