{
  "abi": [
    {
      "inputs": [],
      "stateMutability": "nonpayable",
      "type": "constructor"
    },
    {
      "inputs": [],
      "name": "InsufficientBalance",
      "type": "error"
    },
    {
      "inputs": [],
      "name": "InvalidSubscription",
      "type": "error"
    },
    {
      "inputs": [
        {
          "internalType": "address",
          "name": "owner",
          "type": "address"
        }
      ],
      "name": "MustBeSubOwner",
      "type": "error"
    },
    {
      "anonymous": false,
      "inputs": [
        {
          "indexed": true,
          "internalType": "uint256",
          "name": "requestId",
          "type": "uint256"
        },
        {
          "indexed": false,
          "internalType": "uint256",
          "name": "outputSeed",
          "type": "uint256"
        },
        {
          "indexed": false,
          "internalType": "uint96",
          "name": "payment",
          "type": "uint96"
        },
        {
          "indexed": false,
          "internalType": "bool",
          "name": "success",
          "type": "bool"
        }
      ],
      "name": "RandomWordsFulfilled",
      "type": "event"
    },
    {
      "anonymous": false,
      "inputs": [
        {
          "indexed": true,
          "internalType": "bytes32",
          "name": "keyHash",
          "type": "bytes32"
        },
        {
          "indexed": false,
          "internalType": "uint256",
          "name": "requestId",
          "type": "uint256"
        },
        {
          "indexed": false,
          "internalType": "uint256",
          "name": "preSeed",
          "type": "uint256"
        },
        {
          "indexed": true,
          "internalType": "uint64",
          "name": "subId",
          "type": "uint64"
        },
        {
          "indexed": false,
          "internalType": "uint16",
          "name": "minimumRequestConfirmations",
          "type": "uint16"
        },
        {
          "indexed": false,
          "internalType": "uint32",
          "name": "callbackGasLimit",
          "type": "uint32"
        },
        {
          "indexed": false,
          "internalType": "uint32",
          "name": "numWords",
          "type": "uint32"
        },
        {
          "indexed": true,
          "internalType": "address",
          "name": "sender",
          "type": "address"
        }
      ],
      "name": "RandomWordsRequested",
      "type": "event"
    },
    {
      "anonymous": false,
      "inputs": [
        {
          "indexed": true,
          "internalType": "uint64",
          "name": "subId",
          "type": "uint64"
        },
        {
          "indexed": false,
          "internalType": "address",
          "name": "to",
          "type": "address"
        },
        {
          "indexed": false,
          "internalType": "uint256",
          "name": "amount",
          "type": "uint256"
        }
      ],
      "name": "SubscriptionCanceled",
      "type": "event"
    },
    {
      "anonymous": false,
      "inputs": [
        {
          "indexed": true,
          "internalType": "uint64",
          "name": "subId",
          "type": "uint64"
        },
        {
          "indexed": false,
          "internalType": "address",
          "name": "owner",
          "type": "address"
        }
      ],
      "name": "SubscriptionCreated",
      "type": "event"
    },
    {
      "anonymous": false,
      "inputs": [
        {
          "indexed": true,
          "internalType": "uint64",
          "name": "subId",
          "type": "uint64"
        },
        {
          "indexed": false,
          "internalType": "uint256",
          "name": "oldBalance",
          "type": "uint256"
        },
        {
          "indexed": false,
          "internalType": "uint256",
          "name": "newBalance",
          "type": "uint256"
        }
      ],
      "name": "SubscriptionFunded",
      "type": "event"
    },
    {
      "inputs": [],
      "name": "BASE_FEE",
      "outputs": [
        {
          "internalType": "uint96",
          "name": "",
          "type": "uint96"
        }
      ],
      "stateMutability": "view",
      "type": "function"
    },
    {
      "inputs": [],
      "name": "GAS_PRICE_LINK",
      "outputs": [
        {
          "internalType": "uint96",
          "name": "",
          "type": "uint96"
        }
      ],
      "stateMutability": "view",
      "type": "function"
    },
    {
      "inputs": [
        {
          "internalType": "uint64",
          "name": "_subId",
          "type": "uint64"
        }
      ],
      "name": "acceptSubscriptionOwnerTransfer",
      "outputs": [],
      "stateMutability": "pure",
      "type": "function"
    },
    {
      "inputs": [
        {
          "internalType": "uint64",
          "name": "_subId",
          "type": "uint64"
        },
        {
          "internalType": "address",
          "name": "_consumer",
          "type": "address"
        }
      ],
      "name": "addConsumer",
      "outputs": [],
      "stateMutability": "pure",
      "type": "function"
    },
    {
      "inputs": [
        {
          "internalType": "uint64",
          "name": "_subId",
          "type": "uint64"
        },
        {
          "internalType": "address",
          "name": "_to",
          "type": "address"
        }
      ],
      "name": "cancelSubscription",
      "outputs": [],
      "stateMutability": "nonpayable",
      "type": "function"
    },
    {
      "inputs": [],
      "name": "createSubscription",
      "outputs": [
        {
          "internalType": "uint64",
          "name": "_subId",
          "type": "uint64"
        }
      ],
      "stateMutability": "nonpayable",
      "type": "function"
    },
    {
      "inputs": [
        {
          "internalType": "uint256",
          "name": "_requestId",
          "type": "uint256"
        },
        {
          "internalType": "address",
          "name": "_consumer",
          "type": "address"
        }
      ],
      "name": "fulfillRandomWords",
      "outputs": [],
      "stateMutability": "nonpayable",
      "type": "function"
    },
    {
      "inputs": [
        {
          "internalType": "uint64",
          "name": "_subId",
          "type": "uint64"
        },
        {
          "internalType": "uint96",
          "name": "_amount",
          "type": "uint96"
        }
      ],
      "name": "fundSubscription",
      "outputs": [],
      "stateMutability": "nonpayable",
      "type": "function"
    },
    {
      "inputs": [],
      "name": "getRequestConfig",
      "outputs": [
        {
          "internalType": "uint16",
          "name": "",
          "type": "uint16"
        },
        {
          "internalType": "uint32",
          "name": "",
          "type": "uint32"
        },
        {
          "internalType": "bytes32[]",
          "name": "",
          "type": "bytes32[]"
        }
      ],
      "stateMutability": "pure",
      "type": "function"
    },
    {
      "inputs": [
        {
          "internalType": "uint64",
          "name": "_subId",
          "type": "uint64"
        }
      ],
      "name": "getSubscription",
      "outputs": [
        {
          "internalType": "uint96",
          "name": "balance",
          "type": "uint96"
        },
        {
          "internalType": "uint64",
          "name": "reqCount",
          "type": "uint64"
        },
        {
          "internalType": "address",
          "name": "owner",
          "type": "address"
        },
        {
          "internalType": "address[]",
          "name": "consumers",
          "type": "address[]"
        }
      ],
      "stateMutability": "view",
      "type": "function"
    },
    {
      "inputs": [
        {
          "internalType": "uint64",
          "name": "_subId",
          "type": "uint64"
        },
        {
          "internalType": "address",
          "name": "_consumer",
          "type": "address"
        }
      ],
      "name": "removeConsumer",
      "outputs": [],
      "stateMutability": "pure",
      "type": "function"
    },
    {
      "inputs": [
        {
          "internalType": "bytes32",
          "name": "_keyHash",
          "type": "bytes32"
        },
        {
          "internalType": "uint64",
          "name": "_subId",
          "type": "uint64"
        },
        {
          "internalType": "uint16",
          "name": "_minimumRequestConfirmations",
          "type": "uint16"
        },
        {
          "internalType": "uint32",
          "name": "_callbackGasLimit",
          "type": "uint32"
        },
        {
          "internalType": "uint32",
          "name": "_numWords",
          "type": "uint32"
        }
      ],
      "name": "requestRandomWords",
      "outputs": [
        {
          "internalType": "uint256",
          "name": "",
          "type": "uint256"
        }
      ],
      "stateMutability": "nonpayable",
      "type": "function"
    },
    {
      "inputs": [
        {
          "internalType": "uint64",
          "name": "_subId",
          "type": "uint64"
        },
        {
          "internalType": "address",
          "name": "_newOwner",
          "type": "address"
        }
      ],
      "name": "requestSubscriptionOwnerTransfer",
      "outputs": [],
      "stateMutability": "pure",
      "type": "function"
    }
  ],
  "bytecode": {
    "object": "0x60c060405260018055606460025534801561001957600080fd5b5067016345785d8a0000608052633b9aca0060a05260805160a05161126f610061600039600081816101ce01526106e10152600081816101270152610736015261126f6000f3fe608060405234801561001057600080fd5b50600436106100de5760003560e01c8063823597401161008c578063a410347f11610066578063a410347f146101c9578063a47c7696146101f0578063afc69b5314610213578063d7ae1d301461022657600080fd5b8063823597401461019a5780639f87fad71461010d578063a21a23e4146101a857600080fd5b80635d3b1d30116100bd5780635d3b1d30146101665780637341c10c1461010d578063808974ff1461018757600080fd5b8062012291146100e357806304c357cb1461010d5780633d18651e14610122575b600080fd5b6040805160008152602081019182905261010491600391621e848091610d90565b60405180910390f35b61012061011b366004610e30565b610239565b005b6101497f000000000000000000000000000000000000000000000000000000000000000081565b6040516bffffffffffffffffffffffff9091168152602001610104565b610179610174366004610e77565b6102a0565b604051908152602001610104565b610120610195366004610ede565b610456565b61012061011b366004610f01565b6101b06108d9565b60405167ffffffffffffffff9091168152602001610104565b6101497f000000000000000000000000000000000000000000000000000000000000000081565b6102036101fe366004610f01565b6109c7565b6040516101049493929190610f23565b610120610221366004610fb1565b610ac6565b610120610234366004610e30565b610c10565b6040517f08c379a000000000000000000000000000000000000000000000000000000000815260206004820152600f60248201527f6e6f7420696d706c656d656e746564000000000000000000000000000000000060448201526064015b60405180910390fd5b67ffffffffffffffff841660009081526003602052604081205473ffffffffffffffffffffffffffffffffffffffff16610306576040517f1f6a65b600000000000000000000000000000000000000000000000000000000815260040160405180910390fd5b600180546000918261031783611057565b9091555060028054919250600091908261033083611057565b90915550604080516060808201835267ffffffffffffffff8b811680845263ffffffff8b811660208087018281528d8416888a0181815260008e8152600485528b902099518a549351915187166c01000000000000000000000000027fffffffffffffffffffffffffffffffff00000000ffffffffffffffffffffffff9290971668010000000000000000027fffffffffffffffffffffffffffffffffffffffff000000000000000000000000909416981697909717919091179590951692909217909555855189815290810187905261ffff8d16818701529283019390935260808201529151929350339290918b917f63373d1c4696214b898952999c9aaec57dac1ee2723cec59bea6888f489a97729160a0908290030190a4509695505050505050565b60005a60008481526004602052604090205490915067ffffffffffffffff166104db576040517f08c379a000000000000000000000000000000000000000000000000000000000815260206004820152601360248201527f6e6f6e6578697374656e742072657175657374000000000000000000000000006044820152606401610297565b60008381526004602090815260408083208151606081018352905467ffffffffffffffff808216835263ffffffff6801000000000000000083048116958401959095526c01000000000000000000000000909104909316918101829052929181111561054957610549610ff9565b604051908082528060200260200182016040528015610572578160200160208202803683370190505b50905060005b826040015163ffffffff168110156105e65760408051602081018890529081018290526060016040516020818303038152906040528051906020012060001c8282815181106105c9576105c9611090565b6020908102919091010152806105de81611057565b915050610578565b50600080631fe543e360e01b87846040516024016106059291906110bf565b604051602081830303815290604052907bffffffffffffffffffffffffffffffffffffffffffffffffffffffff19166020820180517bffffffffffffffffffffffffffffffffffffffffffffffffffffffff8381831617835250505050905060008673ffffffffffffffffffffffffffffffffffffffff16856020015163ffffffff1683604051610696919061110d565b60006040518083038160008787f1925050503d80600081146106d4576040519150601f19603f3d011682016040523d82523d6000602084013e6106d9565b606091505b5050905060007f00000000000000000000000000000000000000000000000000000000000000006bffffffffffffffffffffffff165a6107199089611148565b610723919061115f565b61075b906bffffffffffffffffffffffff7f00000000000000000000000000000000000000000000000000000000000000001661119c565b865167ffffffffffffffff166000908152600360205260409020549091506bffffffffffffffffffffffff808316740100000000000000000000000000000000000000009092041610156107db576040517ff4d678b800000000000000000000000000000000000000000000000000000000815260040160405180910390fd5b855167ffffffffffffffff166000908152600360205260409020805482919060149061082e9084907401000000000000000000000000000000000000000090046bffffffffffffffffffffffff166111b4565b82546101009290920a6bffffffffffffffffffffffff81810219909316918316021790915560008b81526004602090815260409182902080547fffffffffffffffffffffffffffffffff0000000000000000000000000000000016905581518d815292851690830152841515908201528a91507f7dffc5ae5ee4e2e4df1651cf6ad329a73cebdb728f37ea0187b9b17e036756e49060600160405180910390a2505050505050505050565b6000805467ffffffffffffffff1681806108f2836111e1565b825467ffffffffffffffff9182166101009390930a928302928202191691909117909155604080518082018252338082526000602080840182815282548716835260038252858320945190516bffffffffffffffffffffffff16740100000000000000000000000000000000000000000273ffffffffffffffffffffffffffffffffffffffff909116179093555492519081529190921692507f464722b4166576d3dcbba877b999bc35cf911f4eaf434b7eba68fa113951d0bf910160405180910390a25060005467ffffffffffffffff1690565b67ffffffffffffffff81166000908152600360205260408120548190819060609073ffffffffffffffffffffffffffffffffffffffff16610a34576040517f1f6a65b600000000000000000000000000000000000000000000000000000000815260040160405180910390fd5b67ffffffffffffffff85166000908152600360205260408120546bffffffffffffffffffffffff74010000000000000000000000000000000000000000820416919073ffffffffffffffffffffffffffffffffffffffff1681604051908082528060200260200182016040528015610ab6578160200160208202803683370190505b5093509350935093509193509193565b67ffffffffffffffff821660009081526003602052604090205473ffffffffffffffffffffffffffffffffffffffff16610b2c576040517f1f6a65b600000000000000000000000000000000000000000000000000000000815260040160405180910390fd5b67ffffffffffffffff8216600090815260036020526040902080547401000000000000000000000000000000000000000090046bffffffffffffffffffffffff169082906014610b7c8385611209565b92506101000a8154816bffffffffffffffffffffffff02191690836bffffffffffffffffffffffff1602179055508267ffffffffffffffff167fd39ec07f4e209f627a4c427971473820dc129761ba28de8906bd56f57101d4f8828484610be39190611209565b604080516bffffffffffffffffffffffff93841681529290911660208301520160405180910390a2505050565b67ffffffffffffffff8216600090815260036020526040902054829073ffffffffffffffffffffffffffffffffffffffff1680610c79576040517f1f6a65b600000000000000000000000000000000000000000000000000000000815260040160405180910390fd5b3373ffffffffffffffffffffffffffffffffffffffff821614610ce0576040517fd8a3fb5200000000000000000000000000000000000000000000000000000000815273ffffffffffffffffffffffffffffffffffffffff82166004820152602401610297565b67ffffffffffffffff841660008181526003602090815260409182902054825173ffffffffffffffffffffffffffffffffffffffff88168152740100000000000000000000000000000000000000009091046bffffffffffffffffffffffff16918101919091527fe8ed5b475a5b5987aa9165e8731bb78043f39eee32ec5a1169a89e27fcd49815910160405180910390a250505067ffffffffffffffff16600090815260036020526040812055565b60006060820161ffff86168352602063ffffffff86168185015260606040850152818551808452608086019150828701935060005b81811015610de157845183529383019391830191600101610dc5565b509098975050505050505050565b803567ffffffffffffffff81168114610e0757600080fd5b919050565b803573ffffffffffffffffffffffffffffffffffffffff81168114610e0757600080fd5b60008060408385031215610e4357600080fd5b610e4c83610def565b9150610e5a60208401610e0c565b90509250929050565b803563ffffffff81168114610e0757600080fd5b600080600080600060a08688031215610e8f57600080fd5b85359450610e9f60208701610def565b9350604086013561ffff81168114610eb657600080fd5b9250610ec460608701610e63565b9150610ed260808701610e63565b90509295509295909350565b60008060408385031215610ef157600080fd5b82359150610e5a60208401610e0c565b600060208284031215610f1357600080fd5b610f1c82610def565b9392505050565b6000608082016bffffffffffffffffffffffff87168352602067ffffffffffffffff87168185015273ffffffffffffffffffffffffffffffffffffffff80871660408601526080606086015282865180855260a087019150838801945060005b81811015610fa1578551841683529484019491840191600101610f83565b50909a9950505050505050505050565b60008060408385031215610fc457600080fd5b610fcd83610def565b915060208301356bffffffffffffffffffffffff81168114610fee57600080fd5b809150509250929050565b7f4e487b7100000000000000000000000000000000000000000000000000000000600052604160045260246000fd5b7f4e487b7100000000000000000000000000000000000000000000000000000000600052601160045260246000fd5b60007fffffffffffffffffffffffffffffffffffffffffffffffffffffffffffffffff82141561108957611089611028565b5060010190565b7f4e487b7100000000000000000000000000000000000000000000000000000000600052603260045260246000fd5b6000604082018483526020604081850152818551808452606086019150828701935060005b81811015611100578451835293830193918301916001016110e4565b5090979650505050505050565b6000825160005b8181101561112e5760208186018101518583015201611114565b8181111561113d576000828501525b509190910192915050565b60008282101561115a5761115a611028565b500390565b6000817fffffffffffffffffffffffffffffffffffffffffffffffffffffffffffffffff048311821515161561119757611197611028565b500290565b600082198211156111af576111af611028565b500190565b60006bffffffffffffffffffffffff838116908316818110156111d9576111d9611028565b039392505050565b600067ffffffffffffffff808316818114156111ff576111ff611028565b6001019392505050565b60006bffffffffffffffffffffffff80831681851680830382111561123057611230611028565b0194935050505056fea2646970667358221220197db8fd82b220245b128afb2bd2a62f6e16f3617e21a38a080f47df0be17a7164736f6c634300080b0033",
    "linkReferences": {}
  }
}