{
  "abi": [
    {
      "inputs": [
        {
          "internalType": "uint64",
          "name": "subscriptionId",
          "type": "uint64"
        },
        {
          "internalType": "address",
          "name": "vrfCoordinator",
          "type": "address"
        },
        {
          "internalType": "address",
          "name": "link",
          "type": "address"
        },
        {
          "internalType": "bytes32",
          "name": "keyHash",
          "type": "bytes32"
        }
      ],
      "stateMutability": "nonpayable",
      "type": "constructor"
    },
    {
      "inputs": [
        {
          "internalType": "address",
          "name": "have",
          "type": "address"
        },
        {
          "internalType": "address",
          "name": "want",
          "type": "address"
        }
      ],
      "name": "OnlyCoordinatorCanFulfill",
      "type": "error"
    },
    {
      "anonymous": false,
      "inputs": [
        {
          "indexed": false,
          "internalType": "uint256[]",
          "name": "randomWords",
          "type": "uint256[]"
        }
      ],
      "name": "ReturnedRandomness",
      "type": "event"
    },
    {
      "inputs": [
        {
          "internalType": "uint256",
          "name": "requestId",
          "type": "uint256"
        },
        {
          "internalType": "uint256[]",
          "name": "randomWords",
          "type": "uint256[]"
        }
      ],
      "name": "rawFulfillRandomWords",
      "outputs": [],
      "stateMutability": "nonpayable",
      "type": "function"
    },
    {
      "inputs": [],
      "name": "requestRandomWords",
      "outputs": [],
      "stateMutability": "nonpayable",
      "type": "function"
    },
    {
      "inputs": [],
      "name": "s_numWords",
      "outputs": [
        {
          "internalType": "uint32",
          "name": "",
          "type": "uint32"
        }
      ],
      "stateMutability": "view",
      "type": "function"
    },
    {
      "inputs": [
        {
          "internalType": "uint256",
          "name": "",
          "type": "uint256"
        }
      ],
      "name": "s_randomWords",
      "outputs": [
        {
          "internalType": "uint256",
          "name": "",
          "type": "uint256"
        }
      ],
      "stateMutability": "view",
      "type": "function"
    },
    {
      "inputs": [],
      "name": "s_requestId",
      "outputs": [
        {
          "internalType": "uint256",
          "name": "",
          "type": "uint256"
        }
      ],
      "stateMutability": "view",
      "type": "function"
    }
  ],
  "bytecode": {
    "object": "0x610180604052620186a06101205260036101405260026101605234801561002557600080fd5b506040516107543803806107548339810160408190526100449161009f565b6001600160a01b03928316608081905260a052911660c05261010052600280546001600160a01b031916331790556001600160401b031660e0526100f8565b80516001600160a01b038116811461009a57600080fd5b919050565b600080600080608085870312156100b557600080fd5b84516001600160401b03811681146100cc57600080fd5b93506100da60208601610083565b92506100e860408601610083565b6060959095015193969295505050565b60805160a05160c05160e051610100516101205161014051610160516105ed61016760003960008181608601526102ac0152600061025801526000610284015260006101ff0152600061022e01526000505060006102d301526000818161010c015261017401526105ed6000f3fe608060405234801561001057600080fd5b50600436106100675760003560e01c8063e0c8628911610050578063e0c86289146100c2578063e89e106a146100ca578063f6eaffc8146100e157600080fd5b80631fe543e31461006c578063967dd78014610081575b600080fd5b61007f61007a366004610459565b6100f4565b005b6100a87f000000000000000000000000000000000000000000000000000000000000000081565b60405163ffffffff90911681526020015b60405180910390f35b61007f6101b3565b6100d360015481565b6040519081526020016100b9565b6100d36100ef366004610541565b61035a565b3373ffffffffffffffffffffffffffffffffffffffff7f000000000000000000000000000000000000000000000000000000000000000016146101a5576040517f1cf993f400000000000000000000000000000000000000000000000000000000815233600482015273ffffffffffffffffffffffffffffffffffffffff7f000000000000000000000000000000000000000000000000000000000000000016602482015260440160405180910390fd5b6101af828261037b565b5050565b60025473ffffffffffffffffffffffffffffffffffffffff1633146101d757600080fd5b6040517f5d3b1d300000000000000000000000000000000000000000000000000000000081527f0000000000000000000000000000000000000000000000000000000000000000600482015267ffffffffffffffff7f000000000000000000000000000000000000000000000000000000000000000016602482015261ffff7f000000000000000000000000000000000000000000000000000000000000000016604482015263ffffffff7f0000000000000000000000000000000000000000000000000000000000000000811660648301527f00000000000000000000000000000000000000000000000000000000000000001660848201527f000000000000000000000000000000000000000000000000000000000000000073ffffffffffffffffffffffffffffffffffffffff1690635d3b1d309060a4016020604051808303816000875af1158015610331573d6000803e3d6000fd5b505050506040513d601f19601f82011682018060405250810190610355919061055a565b600155565b6000818154811061036a57600080fd5b600091825260209091200154905081565b805161038e9060009060208401906103ca565b507fefb16d61046900da527008568620fb9f8420e2f5ed4de3bfbded5035c9362b0e816040516103be9190610573565b60405180910390a15050565b828054828255906000526020600020908101928215610405579160200282015b828111156104055782518255916020019190600101906103ea565b50610411929150610415565b5090565b5b808211156104115760008155600101610416565b7f4e487b7100000000000000000000000000000000000000000000000000000000600052604160045260246000fd5b6000806040838503121561046c57600080fd5b8235915060208084013567ffffffffffffffff8082111561048c57600080fd5b818601915086601f8301126104a057600080fd5b8135818111156104b2576104b261042a565b8060051b6040517fffffffffffffffffffffffffffffffffffffffffffffffffffffffffffffffe0603f830116810181811085821117156104f5576104f561042a565b60405291825284820192508381018501918983111561051357600080fd5b938501935b8285101561053157843584529385019392850192610518565b8096505050505050509250929050565b60006020828403121561055357600080fd5b5035919050565b60006020828403121561056c57600080fd5b5051919050565b6020808252825182820181905260009190848201906040850190845b818110156105ab5783518352928401929184019160010161058f565b5090969550505050505056fea2646970667358221220d6e410a5724314c28a87f645eb3c188b3c4fdc84ec18cf880c9839efbe2506a164736f6c634300080b0033",
    "linkReferences": {}
  }
}