{
  "abi": [
    {
      "inputs": [
        {
          "internalType": "address",
          "name": "_oracle",
          "type": "address"
        },
        {
          "internalType": "bytes32",
          "name": "_jobId",
          "type": "bytes32"
        },
        {
          "internalType": "uint256",
          "name": "_fee",
          "type": "uint256"
        },
        {
          "internalType": "address",
          "name": "_link",
          "type": "address"
        }
      ],
      "stateMutability": "nonpayable",
      "type": "constructor"
    },
    {
      "anonymous": false,
      "inputs": [
        {
          "indexed": true,
          "internalType": "bytes32",
          "name": "id",
          "type": "bytes32"
        }
      ],
      "name": "ChainlinkCancelled",
      "type": "event"
    },
    {
      "anonymous": false,
      "inputs": [
        {
          "indexed": true,
          "internalType": "bytes32",
          "name": "id",
          "type": "bytes32"
        }
      ],
      "name": "ChainlinkFulfilled",
      "type": "event"
    },
    {
      "anonymous": false,
      "inputs": [
        {
          "indexed": true,
          "internalType": "bytes32",
          "name": "id",
          "type": "bytes32"
        }
      ],
      "name": "ChainlinkRequested",
      "type": "event"
    },
    {
      "anonymous": false,
      "inputs": [
        {
          "indexed": false,
          "internalType": "uint256",
          "name": "volume",
          "type": "uint256"
        }
      ],
      "name": "DataFullfilled",
      "type": "event"
    },
    {
      "inputs": [
        {
          "internalType": "bytes32",
          "name": "_requestId",
          "type": "bytes32"
        },
        {
          "internalType": "uint256",
          "name": "_volume",
          "type": "uint256"
        }
      ],
      "name": "fulfill",
      "outputs": [],
      "stateMutability": "nonpayable",
      "type": "function"
    },
    {
      "inputs": [],
      "name": "requestVolumeData",
      "outputs": [
        {
          "internalType": "bytes32",
          "name": "requestId",
          "type": "bytes32"
        }
      ],
      "stateMutability": "nonpayable",
      "type": "function"
    },
    {
      "inputs": [],
      "name": "volume",
      "outputs": [
        {
          "internalType": "uint256",
          "name": "",
          "type": "uint256"
        }
      ],
      "stateMutability": "view",
      "type": "function"
    },
    {
      "inputs": [],
      "name": "withdrawLink",
      "outputs": [],
      "stateMutability": "nonpayable",
      "type": "function"
    }
  ],
  "bytecode": {
    "object": "0x60e060405260016004553480156200001657600080fd5b50604051620013b3380380620013b383398101604081905262000039916200014d565b6001600160a01b0381166200005857620000526200008f565b62000074565b600280546001600160a01b0319166001600160a01b0383161790555b506001600160a01b0390921660805260a05260c052620001bd565b6200012e73c89bd4e1632d3a43cb03aaad5262cbe4038bc5716001600160a01b03166338cc48316040518163ffffffff1660e01b8152600401602060405180830381865afa158015620000e6573d6000803e3d6000fd5b505050506040513d601f19601f820116820180604052508101906200010c919062000198565b600280546001600160a01b0319166001600160a01b0392909216919091179055565b565b80516001600160a01b03811681146200014857600080fd5b919050565b600080600080608085870312156200016457600080fd5b6200016f8562000130565b935060208501519250604085015191506200018d6060860162000130565b905092959194509250565b600060208284031215620001ab57600080fd5b620001b68262000130565b9392505050565b60805160a05160c0516111c6620001ed6000396000610375015260006101e30152600061035301526111c66000f3fe608060405234801561001057600080fd5b506004361061004c5760003560e01c80634357855e146100515780636021abac146100665780638dc654a214610064578063c618a1e414610080575b600080fd5b61006461005f366004610d64565b610089565b005b61006e6101db565b60405190815260200160405180910390f35b61006e60065481565b600082815260056020526040902054829073ffffffffffffffffffffffffffffffffffffffff163314610143576040517f08c379a000000000000000000000000000000000000000000000000000000000815260206004820152602860248201527f536f75726365206d75737420626520746865206f7261636c65206f662074686560448201527f207265717565737400000000000000000000000000000000000000000000000060648201526084015b60405180910390fd5b60008181526005602052604080822080547fffffffffffffffffffffffff00000000000000000000000000000000000000001690555182917f7cc135e0cebb02c3480ae5d74d377283180a2601f8f644edf7987b009316c63a91a260068290556040518281527f221d507243adddffe789060be0e69bff4be830996c6b265bfda5083d86f886329060200160405180910390a1505050565b6000806102297f0000000000000000000000000000000000000000000000000000000000000000307f4357855e000000000000000000000000000000000000000000000000000000006103a0565b90506102856040518060400160405280600381526020017f676574000000000000000000000000000000000000000000000000000000000081525060405180608001604052806049815260200161114860499139839190610431565b6103046040518060400160405280600481526020017f70617468000000000000000000000000000000000000000000000000000000008152506040518060400160405280601881526020017f5241572c4554482c5553442c564f4c554d453234484f55520000000000000000815250836104319092919063ffffffff16565b60408051808201909152600581527f74696d65730000000000000000000000000000000000000000000000000000006020820152670de0b6b3a76400009061034e90839083610454565b6103997f0000000000000000000000000000000000000000000000000000000000000000837f0000000000000000000000000000000000000000000000000000000000000000610472565b9250505090565b6103de6040805160a0810182526000808252602080830182905282840182905260608084018390528451808601909552845283015290608082015290565b61041c6040805160a0810182526000808252602080830182905282840182905260608084018390528451808601909552845283015290608082015290565b61042881868686610569565b95945050505050565b6080830151610440908361060a565b608083015161044f908261060a565b505050565b6080830151610463908361060a565b608083015161044f9082610621565b600454600090610483816001610db5565b600455835160408086015160808701515191516000937f4042994600000000000000000000000000000000000000000000000000000000936104d49386938493923092918a91600191602401610e38565b604080517fffffffffffffffffffffffffffffffffffffffffffffffffffffffffffffffe08184030181529190526020810180517bffffffffffffffffffffffffffffffffffffffffffffffffffffffff167fffffffff0000000000000000000000000000000000000000000000000000000090931692909217909152905061055f868386846106ba565b9695505050505050565b6105a76040805160a0810182526000808252602080830182905282840182905260608084018390528451808601909552845283015290608082015290565b6105b785608001516101006108c8565b505082845273ffffffffffffffffffffffffffffffffffffffff821660208501527fffffffff0000000000000000000000000000000000000000000000000000000081166040850152835b949350505050565b6106178260038351610933565b61044f8282610a48565b7fffffffffffffffffffffffffffffffffffffffffffffffff0000000000000000811215610657576106538282610a76565b5050565b67ffffffffffffffff811315610671576106538282610ad6565b600081126106855761065382600083610933565b6106538260016106b5847fffffffffffffffffffffffffffffffffffffffffffffffffffffffffffffffff610ec1565b610933565b6040517fffffffffffffffffffffffffffffffffffffffff0000000000000000000000003060601b16602082015260348101849052600090605401604080518083037fffffffffffffffffffffffffffffffffffffffffffffffffffffffffffffffe001815282825280516020918201206000818152600590925291812080547fffffffffffffffffffffffff00000000000000000000000000000000000000001673ffffffffffffffffffffffffffffffffffffffff8a1617905590925082917fb5e6e01e79f91267dc17b4e6314d5d4d03593d2ceee0fbb452b750bd70ea5af99190a26002546040517f4000aea000000000000000000000000000000000000000000000000000000000815273ffffffffffffffffffffffffffffffffffffffff90911690634000aea0906107f990889087908790600401610f35565b6020604051808303816000875af1158015610818573d6000803e3d6000fd5b505050506040513d601f19601f8201168201806040525081019061083c9190610f6a565b610602576040517f08c379a000000000000000000000000000000000000000000000000000000000815260206004820152602360248201527f756e61626c6520746f207472616e73666572416e6443616c6c20746f206f726160448201527f636c650000000000000000000000000000000000000000000000000000000000606482015260840161013a565b6040805180820190915260608152600060208201526108e8602083610f8c565b15610910576108f8602083610f8c565b610903906020610fc7565b61090d9083610db5565b91505b506020808301829052604080518085526000815283019091019052815b92915050565b60178167ffffffffffffffff161161095e576109588360e0600585901b168317610af9565b50505050565b60ff8167ffffffffffffffff161161099c57610985836018611fe0600586901b1617610af9565b506109588367ffffffffffffffff83166001610b1e565b61ffff8167ffffffffffffffff16116109db576109c4836019611fe0600586901b1617610af9565b506109588367ffffffffffffffff83166002610b1e565b63ffffffff8167ffffffffffffffff1611610a1c57610a0583601a611fe0600586901b1617610af9565b506109588367ffffffffffffffff83166004610b1e565b610a3183601b611fe0600586901b1617610af9565b506109588367ffffffffffffffff83166008610b1e565b604080518082019091526060815260006020820152610a6f83846000015151848551610b44565b9392505050565b610a818260c3610af9565b5061065382610ab0837fffffffffffffffffffffffffffffffffffffffffffffffffffffffffffffffff610ec1565b604051602001610ac291815260200190565b604051602081830303815290604052610c4c565b610ae18260c2610af9565b506106538282604051602001610ac291815260200190565b604080518082019091526060815260006020820152610a6f8384600001515184610c59565b604080518082019091526060815260006020820152610602848560000151518585610cb5565b6040805180820190915260608152600060208201528251821115610b6757600080fd5b6020850151610b768386610db5565b1115610ba957610ba985610b9987602001518786610b949190610db5565b610d36565b610ba4906002610fde565b610d4d565b600080865180518760208301019350808887011115610bc85787860182525b505050602084015b60208410610c085780518252610be7602083610db5565b9150610bf4602082610db5565b9050610c01602085610fc7565b9350610bd0565b5181517fffffffffffffffffffffffffffffffffffffffffffffffffffffffffffffffff60208690036101000a019081169019919091161790525083949350505050565b6106178260028351610933565b60408051808201909152606081526000602082015283602001518310610c8e57610c8e8485602001516002610ba49190610fde565b835180516020858301018481535080851415610cab576001810182525b5093949350505050565b6040805180820190915260608152600060208201526020850151610cd98584610db5565b1115610ced57610ced85610b998685610db5565b60006001610cfd8461010061113b565b610d079190610fc7565b9050855183868201018583198251161781525080518487011115610d2b5783860181525b509495945050505050565b600081831115610d4757508161092d565b50919050565b8151610d5983836108c8565b506109588382610a48565b60008060408385031215610d7757600080fd5b50508035926020909101359150565b7f4e487b7100000000000000000000000000000000000000000000000000000000600052601160045260246000fd5b60008219821115610dc857610dc8610d86565b500190565b6000815180845260005b81811015610df357602081850181015186830182015201610dd7565b81811115610e05576000602083870101525b50601f017fffffffffffffffffffffffffffffffffffffffffffffffffffffffffffffffe0169290920160200192915050565b600061010073ffffffffffffffffffffffffffffffffffffffff808c1684528a60208501528960408501528089166060850152507fffffffff00000000000000000000000000000000000000000000000000000000871660808401528560a08401528460c08401528060e0840152610eb281840185610dcd565b9b9a5050505050505050505050565b6000808312837f800000000000000000000000000000000000000000000000000000000000000001831281151615610efb57610efb610d86565b837f7fffffffffffffffffffffffffffffffffffffffffffffffffffffffffffffff018313811615610f2f57610f2f610d86565b50500390565b73ffffffffffffffffffffffffffffffffffffffff841681528260208201526060604082015260006104286060830184610dcd565b600060208284031215610f7c57600080fd5b81518015158114610a6f57600080fd5b600082610fc2577f4e487b7100000000000000000000000000000000000000000000000000000000600052601260045260246000fd5b500690565b600082821015610fd957610fd9610d86565b500390565b6000817fffffffffffffffffffffffffffffffffffffffffffffffffffffffffffffffff048311821515161561101657611016610d86565b500290565b600181815b8085111561107457817fffffffffffffffffffffffffffffffffffffffffffffffffffffffffffffffff0482111561105a5761105a610d86565b8085161561106757918102915b93841c9390800290611020565b509250929050565b60008261108b5750600161092d565b816110985750600061092d565b81600181146110ae57600281146110b8576110d4565b600191505061092d565b60ff8411156110c9576110c9610d86565b50506001821b61092d565b5060208310610133831016604e8410600b84101617156110f7575081810a61092d565b611101838361101b565b807fffffffffffffffffffffffffffffffffffffffffffffffffffffffffffffffff0482111561113357611133610d86565b029392505050565b6000610a6f838361107c56fe68747470733a2f2f6d696e2d6170692e63727970746f636f6d706172652e636f6d2f646174612f70726963656d756c746966756c6c3f6673796d733d455448267473796d733d555344a2646970667358221220974725fc5c840b89e494bf117b9faf4aa563de741af028f7ec253a01ed20638964736f6c634300080b0033",
    "linkReferences": {}
  }
}