{
  "abi": [
    {
      "inputs": [
        {
          "internalType": "uint256",
          "name": "updateInterval",
          "type": "uint256"
        }
      ],
      "stateMutability": "nonpayable",
      "type": "constructor"
    },
    {
      "inputs": [
        {
          "internalType": "bytes",
          "name": "",
          "type": "bytes"
        }
      ],
      "name": "checkUpkeep",
      "outputs": [
        {
          "internalType": "bool",
          "name": "upkeepNeeded",
          "type": "bool"
        },
        {
          "internalType": "bytes",
          "name": "",
          "type": "bytes"
        }
      ],
      "stateMutability": "nonpayable",
      "type": "function"
    },
    {
      "inputs": [],
      "name": "counter",
      "outputs": [
        {
          "internalType": "uint256",
          "name": "",
          "type": "uint256"
        }
      ],
      "stateMutability": "view",
      "type": "function"
    },
    {
      "inputs": [],
      "name": "interval",
      "outputs": [
        {
          "internalType": "uint256",
          "name": "",
          "type": "uint256"
        }
      ],
      "stateMutability": "view",
      "type": "function"
    },
    {
      "inputs": [],
      "name": "lastTimeStamp",
      "outputs": [
        {
          "internalType": "uint256",
          "name": "",
          "type": "uint256"
        }
      ],
      "stateMutability": "view",
      "type": "function"
    },
    {
      "inputs": [
        {
          "internalType": "bytes",
          "name": "",
          "type": "bytes"
        }
      ],
      "name": "performUpkeep",
      "outputs": [],
      "stateMutability": "nonpayable",
      "type": "function"
    }
  ],
  "bytecode": {
    "object": "0x60a060405234801561001057600080fd5b506040516104c53803806104c583398101604081905261002f9161003f565b6080524260015560008055610058565b60006020828403121561005157600080fd5b5051919050565b60805161044c6100796000396000818160cc0152610196015261044c6000f3fe608060405234801561001057600080fd5b50600436106100675760003560e01c806361bc221a1161005057806361bc221a1461009d5780636e04ff0d146100a6578063947a36fb146100c757600080fd5b80633f3b3b271461006c5780634585e33b14610088575b600080fd5b61007560015481565b6040519081526020015b60405180910390f35b61009b6100963660046101cb565b6100ee565b005b61007560005481565b6100b96100b436600461026c565b610190565b60405161007f92919061033b565b6100757f000000000000000000000000000000000000000000000000000000000000000081565b600061010860405180602001604052806000815250610190565b50905080610176576040517f08c379a000000000000000000000000000000000000000000000000000000000815260206004820152601560248201527f54696d6520696e74657276616c206e6f74206d65740000000000000000000000604482015260640160405180910390fd5b426001908155600054610188916103e7565b600055505050565b600060607f0000000000000000000000000000000000000000000000000000000000000000600154426101c391906103ff565b119150915091565b600080602083850312156101de57600080fd5b823567ffffffffffffffff808211156101f657600080fd5b818501915085601f83011261020a57600080fd5b81358181111561021957600080fd5b86602082850101111561022b57600080fd5b60209290920196919550909350505050565b7f4e487b7100000000000000000000000000000000000000000000000000000000600052604160045260246000fd5b60006020828403121561027e57600080fd5b813567ffffffffffffffff8082111561029657600080fd5b818401915084601f8301126102aa57600080fd5b8135818111156102bc576102bc61023d565b604051601f82017fffffffffffffffffffffffffffffffffffffffffffffffffffffffffffffffe0908116603f011681019083821181831017156103025761030261023d565b8160405282815287602084870101111561031b57600080fd5b826020860160208301376000928101602001929092525095945050505050565b821515815260006020604081840152835180604085015260005b8181101561037157858101830151858201606001528201610355565b81811115610383576000606083870101525b50601f017fffffffffffffffffffffffffffffffffffffffffffffffffffffffffffffffe01692909201606001949350505050565b7f4e487b7100000000000000000000000000000000000000000000000000000000600052601160045260246000fd5b600082198211156103fa576103fa6103b8565b500190565b600082821015610411576104116103b8565b50039056fea264697066735822122051e327238b56576fe1b3496d4f9b9b92f299331a1e2d4405c1cd2147a6e8d08e64736f6c634300080b0033",
    "linkReferences": {}
  }
}